:100000000C942A000C9447000C9447000C94470071
:100010000C9447000C9447000C9447000C94470044
:100020000C9447000C9447000C9447000C94470034
:100030000C9447000C9427010C9447000C94470043
:100040000C9447000C9447000C9447000C94470014
:100050000C94470011241FBECFE5D8E0DEBFCDBF12
:1000600010E0A0E6B0E0EEEAF9E002C005900D92E3
:10007000A038B107D9F710E0A0E8B0E001C01D92A8
:10008000A23CB107E1F70E9449000C94D5040C94FE
:100090000000DF93CF93CDB7DEB7E7970FB6F894A4
:1000A000DEBF0FBECDBFE7E3F0E08FEF8083EBE272
:1000B000F0E01082EAE2F0E088E98083E0E4F0E03A
:1000C00086E88083E0E4F0E01082E9E2F0E087E196
:1000D0008083EEE2F0E081E08083EDE2F0E080ED0D
:1000E00080831D821C8210C02C818C819D81FC012B
:1000F000E05AFF4F9081822F692F0E940C018C8162
:100100009D8101969D838C838C819D818630910594
:1001100058F37894809180008823E1F30E94C7010E
:100120008B838B818823B4F78B818F778B8380912E
:1001300080008823E1F30E94C7018A8380918000B8
:100140008823E1F30E94C70189838B81882F90E087
:100150008136910509F043C08A81482F50E089819A
:10016000282F30E08DB79EB70A970FB6F8949EBF40
:100170000FBE8DBFEDB7FEB73196CE0106969183C7
:10018000808382E390E09383828386E690E0958388
:10019000848357834683318720870E94F0018DB77F
:1001A0009EB70A960FB6F8949EBF0FBE8DBFCE01C4
:1001B00006960E949B018A81882F90E0FC01E05AFC
:1001C000FF4F898180838A81882F90E0FC01E05A6B
:1001D000FF4F90818A81692F0E940C019BCF89E794
:1001E00090E00E949B0196CFDF93CF930F92CDB703
:1001F000DEB78983EFE2F0E089818083EEE2F0E010
:1002000080818823DCF7EFE2F0E0808189838981B7
:100210000F90CF91DF910895DF93CF9300D0CDB7AA
:10022000DEB789836A83E8E3F0E08981282F30E034
:1002300081E090E0022E02C0880F991F0A94E2F735
:10024000809580830F900F90CF91DF9108951F923A
:100250000F920FB60F9211242F933F934F935F93FA
:100260006F937F938F939F93AF93BF93EF93FF937E
:10027000DF93CF930F92CDB7DEB7EBE2F0E0808152
:10028000882F90E08C719070009741F0ECE2F0E0E4
:10029000808189838FE30E94840122C0ECE2F0E038
:1002A00080818983809180008034B8F480918100BE
:1002B000882F90E08F739070FC01EE57FF4F89817B
:1002C0008083809181008F5F8F7380938100809104
:1002D00080008F5F8093800003C081E20E948401D0
:1002E0000F90CF91DF91FF91EF91BF91AF919F91CF
:1002F0008F917F916F915F914F913F912F910F90CF
:100300000FBE0F901F901895DF93CF930F92CDB72C
:10031000DEB78983EBE2F0E08081882F90E0807285
:1003200090700097B9F3ECE2F0E0898180830F9040
:10033000CF91DF910895DF93CF9300D000D0CDB758
:10034000DEB79C838B831A82198210C029813A817F
:100350008B819C81FC01E20FF31F808180680E94E9
:10036000840189819A8101969A83898329813A81BE
:100370008B819C81FC01E20FF31F8081882331F780
:100380000F900F900F900F90CF91DF910895DF9312
:10039000CF9300D00F92CDB7DEB780918100282F88
:1003A00030E080918000882F90E0A901481B590B14
:1003B000CA018F7390709A83898389819A81FC0125
:1003C000EE57FF4F80818B83809180008150809316
:1003D00080008B810F900F900F90CF91DF91089547
:1003E000AEE0B0E0E6EFF1E00C94AC040D891E89BC
:1003F0008F89988D97FF02C080E090E801979E83D7
:100400008D831A83098386E08C839E01255E3F4F8E
:10041000CE010196698D7A8DA9010E9421024D813C
:100420005E8157FD0AC02F813885421753070CF4AF
:100430009A01020F131FF80110822E96E4E00C942B
:10044000C804ABE0B0E0E7E2F2E00C949E043C01AB
:100450002B015A01FC0117821682838181FD03C0A2
:100460006FEF7FEFC6C19AE0892E1E010894211C10
:10047000311CF3012381F20123FD859123FF81913A
:100480002F01882309F4B2C1853239F423FD859107
:1004900023FF81912F01853229F490E0B3010E945E
:1004A0001404E7CF982FFF24EE249924FFE1FF15D1
:1004B000D0F09B3269F09C3228F4903259F093329C
:1004C00091F40EC09D3249F0903369F441E024C0AC
:1004D00052E0F52A84E0F82A28C098E0F92A25C0DD
:1004E000E0E1FE2A22C0F7FC29C0892F80538A3020
:1004F00070F4F6FE05C0989C902C1124980E15C03F
:10050000E89CE02C1124E80EF0E2FF2A0EC09E3297
:1005100029F4F6FC6BC140E4F42A07C09C3619F4B8
:1005200050E8F52A02C0983649F4F20123FD95916E
:1005300023FF91912F01992309F0B8CF892F85547A
:10054000833018F08052833038F444E050E0A40E39
:10055000B51E5FE359830FC0933631F0933779F0BE
:10056000933509F056C020C0F5018081898342E0AF
:1005700050E0A40EB51E610101E010E012C0F501CB
:10058000C080D180F6FC03C06FEF7FEF02C0692D01
:1005900070E042E050E0A40EB51EC6010E940904BE
:1005A0008C015FE7F52214C0F501C080D180F6FC14
:1005B00003C06FEF7FEF02C0692D70E042E050E0B2
:1005C000A40EB51EC6010E94FE038C0150E8F52A58
:1005D000F3FE07C01AC080E290E0B3010E94140449
:1005E000EA948E2D90E008171907A8F30EC0F601C3
:1005F000F7FC8591F7FE81916F0190E0B3010E94B5
:100600001404E110EA94015010400115110579F726
:10061000EAC0943611F0993669F5F7FE08C0F50185
:10062000208131814281538184E090E00AC0F5014C
:10063000808191819C01442737FD4095542F82E0B1
:1006400090E0A80EB91E9FE6F92257FF09C0509509
:100650004095309521953F4F4F4F5F4FE0E8FE2A80
:10066000CA01B901A1012AE030E00E944004D82E5D
:10067000D21840C0953729F41F2D1F7E2AE030E0A4
:100680001DC01F2D197F9F3661F0903720F49835DB
:1006900009F0ACC00FC0903739F0983709F0A6C008
:1006A00004C028E030E00AC0106114FD146020E1AD
:1006B00030E004C014FD166020E132E017FF08C0EE
:1006C000F501608171818281938144E050E008C02E
:1006D000F50180819181BC0180E090E042E050E032
:1006E000A40EB51EA1010E944004D82ED2188FE797
:1006F000F82EF122F6FE0BC05EEFF522D91438F485
:10070000F4FE07C0F2FC05C08FEEF82202C01D2DDA
:1007100001C0192DF4FE0DC0FE01ED0DF11D80810B
:10072000803319F499EEF92208C01F5FF2FE05C06C
:1007300003C08F2D867809F01F5F0F2DF3FC14C0C6
:10074000F0FE0FC01E1510F09D2C0BC09D2C9E0CB2
:10075000911A1E2D06C080E290E0B3010E9414049D
:100760001F5F1E15C0F304C01E1510F4E11A01C06E
:10077000EE2404FF0FC080E390E0B3010E94140454
:1007800002FF1DC001FD03C088E790E00EC088E5B0
:1007900090E00BC0802F867891F001FF02C08BE2C1
:1007A00001C080E2F7FC8DE290E0B3010E941404E6
:1007B00006C080E390E0B3010E9414049A94D91417
:1007C000C0F3DA94F101ED0DF11D808190E0B301E9
:1007D0000E941404DD20A9F706C080E290E0B30176
:1007E0000E941404EA94EE20C1F743CEF30166811F
:1007F0007781CB012B96E2E10C94BA04FC010590C1
:10080000615070400110D8F7809590958E0F9F1F12
:100810000895FC016150704001900110D8F7809557
:1008200090958E0F9F1F08950F931F93CF93DF9383
:100830008C01EB018B8181FF1BC082FF0DC02E81DB
:100840003F818C819D812817390764F4E881F98103
:100850000193F983E88306C0E885F985802F09951F
:10086000892B31F48E819F8101969F838E8302C0F4
:100870000FEF1FEFC801DF91CF911F910F910895E6
:10088000FA01AA27283051F1203181F1E8946F93C1
:100890006E7F6E5F7F4F8F4F9F4FAF4FB1E03ED067
:1008A000B4E03CD0670F781F891F9A1FA11D680F05
:1008B000791F8A1F911DA11D6A0F711D811D911D38
:1008C000A11D20D009F468943F912AE0269F1124AD
:1008D0003019305D3193DEF6CF010895462F477011
:1008E000405D4193B3E00FD0C9F7F6CF462F4F706C
:1008F000405D4A3318F0495D31FD4052419302D0CA
:10090000A9F7EACFB4E0A69597958795779567956F
:10091000BA95C9F700976105710508959B01AC016F
:100920000A2E06945795479537952795BA95C9F796
:10093000620F731F841F951FA01D08952F923F9271
:100940004F925F926F927F928F929F92AF92BF92DF
:10095000CF92DF92EF92FF920F931F93CF93DF938B
:10096000CDB7DEB7CA1BDB0B0FB6F894DEBF0FBEE8
:10097000CDBF09942A88398848885F846E847D8435
:100980008C849B84AA84B984C884DF80EE80FD8037
:100990000C811B81AA81B981CE0FD11D0FB6F894AD
:0E09A000DEBF0FBECDBFED010895F894FFCF6E
:1009AE007F0000000000436F6E74726F6C6C657296
:1009BE00202564203D20256400576861743F0000A7
:00000001FF
