:100000000C942A000C9434000C9434000C943400AA
:100010000C9434000C9434000C9434000C94340090
:100020000C9434000C9434000C9434000C94340080
:100030000C9434000C9436000C9434000C9434006E
:100040000C9434000C9434000C9434000C94340060
:100050000C94340011241FBECFE5D8E0DEBFCDBF25
:100060000E944E000C945A000C9400001F920F92B4
:100070000FB60F9211248F938BB18C7131F08CB12C
:100080005D9BFECF8FE38CB903C08CB1809588BB9C
:100090008F910F900FBE0F901F9018951BB888E995
:1000A0008AB984EA80BD10BC87E189B98FEF87BB2C
:0800B0007894FFCFF894FFCF14
:00000001FF
